{
  "_format": "hh-sol-artifact-1",
  "contractName": "VoteLedger",
  "sourceName": "contracts/VoteLedger.sol",
  "abi": [
    {
      "anonymous": false,
      "inputs": [
        {
          "indexed": false,
          "internalType": "bytes32",
          "name": "receiptHash",
          "type": "bytes32"
        },
        {
          "indexed": false,
          "internalType": "uint256",
          "name": "timestamp",
          "type": "uint256"
        }
      ],
      "name": "VoteRecorded",
      "type": "event"
    },
    {
      "inputs": [
        {
          "internalType": "bytes32",
          "name": "receiptHash",
          "type": "bytes32"
        }
      ],
      "name": "storeVote",
      "outputs": [],
      "stateMutability": "nonpayable",
      "type": "function"
    },
    {
      "inputs": [
        {
          "internalType": "bytes32",
          "name": "receiptHash",
          "type": "bytes32"
        }
      ],
      "name": "verifyVote",
      "outputs": [
        {
          "internalType": "bool",
          "name": "",
          "type": "bool"
        }
      ],
      "stateMutability": "view",
      "type": "function"
    }
  ],
  "bytecode": "0x608060405234801561001057600080fd5b50610319806100206000396000f3fe608060405234801561001057600080fd5b50600436106100365760003560e01c8063d772f7681461003b578063e0188ba614610057575b600080fd5b610055600480360381019061005091906101b2565b610087565b005b610071600480360381019061006c91906101b2565b61014e565b60405161007e91906101fa565b60405180910390f35b60008082815260200190815260200160002060009054906101000a900460ff16156100e7576040517f08c379a00000000000000000000000000000000000000000000000000000000081526004016100de90610272565b60405180910390fd5b600160008083815260200190815260200160002060006101000a81548160ff0219169083151502179055507f79afbbd754ad5cd9d258d3183fa9fd678f9b73b766dd0c0edc8c4f2ee0b7cd0781426040516101439291906102ba565b60405180910390a150565b600080600083815260200190815260200160002060009054906101000a900460ff169050919050565b600080fd5b6000819050919050565b61018f8161017c565b811461019a57600080fd5b50565b6000813590506101ac81610186565b92915050565b6000602082840312156101c8576101c7610177565b5b60006101d68482850161019d565b91505092915050565b60008115159050919050565b6101f4816101df565b82525050565b600060208201905061020f60008301846101eb565b92915050565b600082825260208201905092915050565b7f566f746520616c7265616479207265636f726465640000000000000000000000600082015250565b600061025c601583610215565b915061026782610226565b602082019050919050565b6000602082019050818103600083015261028b8161024f565b9050919050565b61029b8161017c565b82525050565b6000819050919050565b6102b4816102a1565b82525050565b60006040820190506102cf6000830185610292565b6102dc60208301846102ab565b939250505056fea26469706673582212205726ce5acd2fe9ae4e014427cdaf0c6579321f1ad4cbccb55137c4b0278c572f64736f6c63430008140033",
  "linkReferences": {},
  "deployedLinkReferences": {}
}